{
  "_format": "hh-sol-artifact-1",
  "contractName": "Crowdfunding",
  "sourceName": "contracts/Crowdfunding.sol",
  "abi": [
    {
      "inputs": [],
      "stateMutability": "nonpayable",
      "type": "constructor"
    },
    {
      "anonymous": false,
      "inputs": [
        {
          "indexed": false,
          "internalType": "uint256",
          "name": "campaignId",
          "type": "uint256"
        },
        {
          "indexed": false,
          "internalType": "address",
          "name": "creator",
          "type": "address"
        },
        {
          "indexed": false,
          "internalType": "uint256",
          "name": "goal",
          "type": "uint256"
        },
        {
          "indexed": false,
          "internalType": "uint256",
          "name": "deadline",
          "type": "uint256"
        }
      ],
      "name": "CampaignCreated",
      "type": "event"
    },
    {
      "anonymous": false,
      "inputs": [
        {
          "indexed": false,
          "internalType": "uint256",
          "name": "campingId",
          "type": "uint256"
        },
        {
          "indexed": false,
          "internalType": "address",
          "name": "backer",
          "type": "address"
        },
        {
          "indexed": false,
          "internalType": "uint256",
          "name": "amount",
          "type": "uint256"
        }
      ],
      "name": "ContributionReceived",
      "type": "event"
    },
    {
      "anonymous": false,
      "inputs": [
        {
          "indexed": false,
          "internalType": "uint256",
          "name": "campaignId",
          "type": "uint256"
        },
        {
          "indexed": false,
          "internalType": "address",
          "name": "creator",
          "type": "address"
        },
        {
          "indexed": false,
          "internalType": "uint256",
          "name": "amount",
          "type": "uint256"
        }
      ],
      "name": "FundsClaimed",
      "type": "event"
    },
    {
      "anonymous": false,
      "inputs": [
        {
          "indexed": false,
          "internalType": "uint256",
          "name": "Campaignid",
          "type": "uint256"
        },
        {
          "indexed": false,
          "internalType": "address",
          "name": "backer",
          "type": "address"
        },
        {
          "indexed": false,
          "internalType": "uint256",
          "name": "amount",
          "type": "uint256"
        }
      ],
      "name": "RefundIssued",
      "type": "event"
    },
    {
      "inputs": [],
      "name": "campaignCount",
      "outputs": [
        {
          "internalType": "uint256",
          "name": "",
          "type": "uint256"
        }
      ],
      "stateMutability": "view",
      "type": "function"
    },
    {
      "inputs": [
        {
          "internalType": "uint256",
          "name": "",
          "type": "uint256"
        }
      ],
      "name": "campaigns",
      "outputs": [
        {
          "internalType": "address",
          "name": "creator",
          "type": "address"
        },
        {
          "internalType": "string",
          "name": "title",
          "type": "string"
        },
        {
          "internalType": "string",
          "name": "description",
          "type": "string"
        },
        {
          "internalType": "uint256",
          "name": "goalAmount",
          "type": "uint256"
        },
        {
          "internalType": "uint256",
          "name": "minContribution",
          "type": "uint256"
        },
        {
          "internalType": "uint256",
          "name": "deadline",
          "type": "uint256"
        },
        {
          "internalType": "uint256",
          "name": "amountRaised",
          "type": "uint256"
        },
        {
          "internalType": "bool",
          "name": "claimed",
          "type": "bool"
        }
      ],
      "stateMutability": "view",
      "type": "function"
    },
    {
      "inputs": [
        {
          "internalType": "uint256",
          "name": "_campaignId",
          "type": "uint256"
        }
      ],
      "name": "claimFunds",
      "outputs": [],
      "stateMutability": "nonpayable",
      "type": "function"
    },
    {
      "inputs": [
        {
          "internalType": "uint256",
          "name": "_campaignId",
          "type": "uint256"
        }
      ],
      "name": "contribute",
      "outputs": [],
      "stateMutability": "payable",
      "type": "function"
    },
    {
      "inputs": [
        {
          "internalType": "uint256",
          "name": "",
          "type": "uint256"
        },
        {
          "internalType": "address",
          "name": "",
          "type": "address"
        }
      ],
      "name": "contributions",
      "outputs": [
        {
          "internalType": "uint256",
          "name": "",
          "type": "uint256"
        }
      ],
      "stateMutability": "view",
      "type": "function"
    },
    {
      "inputs": [
        {
          "internalType": "string",
          "name": "_title",
          "type": "string"
        },
        {
          "internalType": "string",
          "name": "_description",
          "type": "string"
        },
        {
          "internalType": "uint256",
          "name": "_goalAmount",
          "type": "uint256"
        },
        {
          "internalType": "uint256",
          "name": "_minContribution",
          "type": "uint256"
        },
        {
          "internalType": "uint256",
          "name": "_durationInDays",
          "type": "uint256"
        }
      ],
      "name": "createCampaign",
      "outputs": [],
      "stateMutability": "nonpayable",
      "type": "function"
    },
    {
      "inputs": [
        {
          "internalType": "uint256",
          "name": "_campaignId",
          "type": "uint256"
        }
      ],
      "name": "getCampaign",
      "outputs": [
        {
          "internalType": "address",
          "name": "creator",
          "type": "address"
        },
        {
          "internalType": "string",
          "name": "title",
          "type": "string"
        },
        {
          "internalType": "string",
          "name": "description",
          "type": "string"
        },
        {
          "internalType": "uint256",
          "name": "goalAmount",
          "type": "uint256"
        },
        {
          "internalType": "uint256",
          "name": "deadline",
          "type": "uint256"
        },
        {
          "internalType": "uint256",
          "name": "amountRaised",
          "type": "uint256"
        },
        {
          "internalType": "bool",
          "name": "claimed",
          "type": "bool"
        }
      ],
      "stateMutability": "view",
      "type": "function"
    },
    {
      "inputs": [],
      "name": "owner",
      "outputs": [
        {
          "internalType": "address",
          "name": "",
          "type": "address"
        }
      ],
      "stateMutability": "view",
      "type": "function"
    },
    {
      "inputs": [
        {
          "internalType": "uint256",
          "name": "_campaignId",
          "type": "uint256"
        }
      ],
      "name": "refund",
      "outputs": [],
      "stateMutability": "nonpayable",
      "type": "function"
    }
  ],
  "bytecode": "0x6080806040523461002857600080546001600160a01b03191633179055610e78908161002e8239f35b600080fdfe6080604052600436101561001257600080fd5b60003560e01c8063141961bc14610b625780631b55e338146109a7578063278ecde1146108155780633d891f59146107c85780635598f8cc146107255780637274e30d146107075780638da5cb5b146106de578063b5c89219146101c05763c1cbbca71461007f57600080fd5b6020806003193601126101bb57600435908160005260028152604060002060058101544210156101765760048101543410610131579161012c9160067f865c884d49c8cecaef108efb20f7d282f26c0f9b0d24dd48e5592d4e02ec658d94016100e9348254610db9565b905581600052600381526040600020903360005252604060002061010e348254610db9565b90556040805191825233602083015234908201529081906060820190565b0390a1005b60405162461bcd60e51b815260048101839052601b60248201527f4c6f776572207468616e206d696e20636f6e747269627574696f6e00000000006044820152606490fd5b60405162461bcd60e51b815260048101839052601c60248201527f43616d706169676e20646561646c696e652068617320706173736564000000006044820152606490fd5b600080fd5b346101bb5760a03660031901126101bb5760043567ffffffffffffffff81116101bb576101f1903690600401610d72565b60243567ffffffffffffffff81116101bb57610211903690600401610d72565b906084356044351561069957606435156106555760018110158061064a575b156106055762015180908181029181830414901517156105ef576102549042610db9565b9060015460001981146105ef57600181016001556040519361010085019285841067ffffffffffffffff8511176105185760019360405233865260208601526040850152604435606085015260643560808501528260a0850152600060c0850152600060e085015201600052600260205260406000209060018060a01b038351166bffffffffffffffffffffffff60a01b835416178255602083015192835167ffffffffffffffff81116105185761030f6001850154610c14565b601f81116105a8575b506020601f821160011461053957819293949560009261052e575b50508160011b916000199060031b1c19161760018401555b604081015192835167ffffffffffffffff81116105185761036f6002830154610c14565b601f81116104d1575b506020601f82116001146104385760809493928260e0936007937f91b289a829e71d811b8c69e4a24ba2d40d115d8a236e9a724cb3bb2d43cf72239960009261042d575b50508160011b916000199060031b1c19161760028201555b6060840151600382015585840151600482015560a0840151600582015560c0840151600682015501910151151560ff801983541691161790556001549060405191825233602083015260443560408301526060820152a1005b0151905089806103bc565b6002830160005260206000209560005b601f19841681106104b95750926001837f91b289a829e71d811b8c69e4a24ba2d40d115d8a236e9a724cb3bb2d43cf722398600794608099989760e097601f198116106104a0575b505050811b0160028201556103d4565b015160001960f88460031b161c19169055898080610490565b82820151885560019097019660209283019201610448565b600283016000526020600020601f830160051c810160208410610511575b601f830160051c82018110610505575050610378565b600081556001016104ef565b50806104ef565b634e487b7160e01b600052604160045260246000fd5b015190508580610333565b6001850160005260206000209060005b601f1984168110610590575060019394959683601f19811610610577575b505050811b01600184015561034b565b015160001960f88460031b161c19169055858080610567565b9091602060018192858b015181550193019101610549565b600185016000526020600020601f830160051c8101602084106105e8575b601f830160051c820181106105dc575050610318565b600081556001016105c6565b50806105c6565b634e487b7160e01b600052601160045260246000fd5b60405162461bcd60e51b815260206004820152601a60248201527f4475726174696f6e206d75737420626520312d363020646179730000000000006044820152606490fd5b50603c811115610230565b606460405162461bcd60e51b815260206004820152602060248201527f4d696e696d756d20636f6e747269627574696f6e206d757374206265203e20306044820152fd5b60405162461bcd60e51b815260206004820152601b60248201527f476f616c206d7573742062652067726561746572207468616e203000000000006044820152606490fd5b346101bb5760003660031901126101bb576000546040516001600160a01b039091168152602090f35b346101bb5760003660031901126101bb576020600154604051908152f35b346101bb5760203660031901126101bb576004356000526002602052604060002060018060a01b0381541660038201546005830154600684015460ff600786015416916107ad610783600261077c60018a01610c70565b9801610c70565b61079f604051988998895260e060208a015260e0890190610d16565b908782036040890152610d16565b936060860152608085015260a0840152151560c08301520390f35b346101bb5760403660031901126101bb576024356001600160a01b038116908190036101bb5760043560005260036020526040600020906000526020526020604060002054604051908152f35b346101bb576020806003193601126101bb57600435806000526002825260406000206108476005820154421015610dc6565b600360068201549101541115610962578060005260038252604060002033600052825260406000205490811561091d578060005260038352604060002033600052835260006040812055600080808085335af16108a2610e12565b50156108e857604080519182523360208301528101919091527f7a482fdeb6bc9a1376f597068a214a7a39472bb2eff1b8cad21ba04f49ddca1b9150806060810161012c565b60405162461bcd60e51b815260048101849052600d60248201526c1499599d5b990819985a5b1959609a1b6044820152606490fd5b60405162461bcd60e51b815260048101849052601f60248201527f4e6f20636f6e747269627574696f6e20666f756e6420746f20726566756e64006044820152606490fd5b60405162461bcd60e51b815260048101839052601760248201527f476f616c20776173206d65742c206e6f20726566756e640000000000000000006044820152606490fd5b346101bb576020806003193601126101bb5760043560008181526002835260409020546001600160a01b03163303610b1d5780600052600282526040600020906109f76005830154421015610dc6565b60068201549160038101548310610ae957600701805460ff8116610aac5760ff19166001179055600080808085335af1610a2f610e12565b5015610a7557604080519182523360208301528101919091527fa4eb50103b0591feb0bc913f479d92af5eb7ea33e8c397b49bab52ce6af26cb59150806060810161012c565b60405162461bcd60e51b815260048101849052600f60248201526e151c985b9cd9995c8819985a5b1959608a1b6044820152606490fd5b60405162461bcd60e51b8152600481018690526015602482015274119d5b991cc8185b1c9958591e4818db185a5b5959605a1b6044820152606490fd5b60405162461bcd60e51b815260048101859052600c60248201526b11dbd85b081b9bdd081b595d60a21b6044820152606490fd5b60405162461bcd60e51b815260048101839052601860248201527f4e6f74207468652063616d706169676e2063726561746f7200000000000000006044820152606490fd5b346101bb5760203660031901126101bb57600435600090815260026020526040902080546001600160a01b0316610b9b60018301610c70565b91610ba860028201610c70565b6003820154916004810154600582015490610bf460ff600760068601549501541694610be6604051998a998a526101008060208c01528a0190610d16565b9088820360408a0152610d16565b946060870152608086015260a085015260c0840152151560e08301520390f35b90600182811c92168015610c44575b6020831014610c2e57565b634e487b7160e01b600052602260045260246000fd5b91607f1691610c23565b90601f8019910116810190811067ffffffffffffffff82111761051857604052565b9060405191826000825492610c8484610c14565b908184526001948581169081600014610cf35750600114610cb0575b5050610cae92500383610c4e565b565b9093915060005260209081600020936000915b818310610cdb575050610cae93508201013880610ca0565b85548884018501529485019487945091830191610cc3565b915050610cae94506020925060ff191682840152151560051b8201013880610ca0565b919082519283825260005b848110610d42575050826000602080949584010152601f8019910116010190565b602081830181015184830182015201610d21565b67ffffffffffffffff811161051857601f01601f191660200190565b81601f820112156101bb57803590610d8982610d56565b92610d976040519485610c4e565b828452602083830101116101bb57816000926020809301838601378301015290565b919082018092116105ef57565b15610dcd57565b60405162461bcd60e51b815260206004820152601860248201527f446561646c696e65206e6f7420726561636865642079657400000000000000006044820152606490fd5b3d15610e3d573d90610e2382610d56565b91610e316040519384610c4e565b82523d6000602084013e565b60609056fea264697066735822122063c91f338d673c6b6a95c77b8c690f89ab3d3f5928fee7e099a2223c46118ad464736f6c63430008140033",
  "linkReferences": {},
  "deployedLinkReferences": {}
}